{
  "contractName": "Share",
  "abi": [
    {
      "inputs": [
        {
          "internalType": "string[][]",
          "name": "_shows",
          "type": "string[][]"
        }
      ],
      "name": "store",
      "outputs": [],
      "stateMutability": "nonpayable",
      "type": "function"
    },
    {
      "inputs": [
        {
          "internalType": "string[][]",
          "name": "_showDomains",
          "type": "string[][]"
        }
      ],
      "name": "storeDomain",
      "outputs": [],
      "stateMutability": "nonpayable",
      "type": "function"
    },
    {
      "inputs": [
        {
          "internalType": "string[][]",
          "name": "_showsTunnels",
          "type": "string[][]"
        }
      ],
      "name": "storeTunnel",
      "outputs": [],
      "stateMutability": "nonpayable",
      "type": "function"
    },
    {
      "inputs": [],
      "name": "query",
      "outputs": [
        {
          "components": [
            {
              "internalType": "string",
              "name": "IP",
              "type": "string"
            },
            {
              "internalType": "string",
              "name": "Level",
              "type": "string"
            },
            {
              "internalType": "string",
              "name": "IocType",
              "type": "string"
            },
            {
              "internalType": "string",
              "name": "Tags",
              "type": "string"
            },
            {
              "internalType": "string",
              "name": "WarnName",
              "type": "string"
            }
          ],
          "internalType": "struct Share.Show[]",
          "name": "",
          "type": "tuple[]"
        }
      ],
      "stateMutability": "view",
      "type": "function",
      "constant": true
    },
    {
      "inputs": [],
      "name": "queryDomain",
      "outputs": [
        {
          "components": [
            {
              "internalType": "string",
              "name": "Domain",
              "type": "string"
            },
            {
              "internalType": "string",
              "name": "Level",
              "type": "string"
            },
            {
              "internalType": "string",
              "name": "IocType",
              "type": "string"
            },
            {
              "internalType": "string",
              "name": "Tags",
              "type": "string"
            },
            {
              "internalType": "string",
              "name": "WarnName",
              "type": "string"
            }
          ],
          "internalType": "struct Share.ShowDomain[]",
          "name": "",
          "type": "tuple[]"
        }
      ],
      "stateMutability": "view",
      "type": "function",
      "constant": true
    },
    {
      "inputs": [],
      "name": "queryTunnel",
      "outputs": [
        {
          "components": [
            {
              "internalType": "string",
              "name": "IP",
              "type": "string"
            },
            {
              "internalType": "string",
              "name": "Level",
              "type": "string"
            },
            {
              "internalType": "string",
              "name": "IocType",
              "type": "string"
            },
            {
              "internalType": "string",
              "name": "Tags",
              "type": "string"
            },
            {
              "internalType": "string",
              "name": "WarnName",
              "type": "string"
            }
          ],
          "internalType": "struct Share.ShowTunnel[]",
          "name": "",
          "type": "tuple[]"
        }
      ],
      "stateMutability": "view",
      "type": "function",
      "constant": true
    }
  ],
  "bytecode": "0x608060405234801561001057600080fd5b50611b6e806100206000396000f3fe608060405234801561001057600080fd5b50600436106100625760003560e01c80632c46b2051461006757806341e5f062146100855780637e2deea3146100a1578063a4a0fc42146100bd578063af022625146100d9578063ca874ebc146100f7575b600080fd5b61006f610115565b60405161007c91906113bf565b60405180910390f35b61009f600480360381019061009a91906116f1565b61044e565b005b6100bb60048036038101906100b691906116f1565b610587565b005b6100d760048036038101906100d291906116f1565b6106c0565b005b6100e16107f9565b6040516100ee919061188e565b60405180910390f35b6100ff610b32565b60405161010c9190611a04565b60405180910390f35b60606000805480602002602001604051908101604052809291908181526020016000905b8282101561044557838290600052602060002090600502016040518060a001604052908160008201805461016c90611a55565b80601f016020809104026020016040519081016040528092919081815260200182805461019890611a55565b80156101e55780601f106101ba576101008083540402835291602001916101e5565b820191906000526020600020905b8154815290600101906020018083116101c857829003601f168201915b505050505081526020016001820180546101fe90611a55565b80601f016020809104026020016040519081016040528092919081815260200182805461022a90611a55565b80156102775780601f1061024c57610100808354040283529160200191610277565b820191906000526020600020905b81548152906001019060200180831161025a57829003601f168201915b5050505050815260200160028201805461029090611a55565b80601f01602080910402602001604051908101604052809291908181526020018280546102bc90611a55565b80156103095780601f106102de57610100808354040283529160200191610309565b820191906000526020600020905b8154815290600101906020018083116102ec57829003601f168201915b5050505050815260200160038201805461032290611a55565b80601f016020809104026020016040519081016040528092919081815260200182805461034e90611a55565b801561039b5780601f106103705761010080835404028352916020019161039b565b820191906000526020600020905b81548152906001019060200180831161037e57829003601f168201915b505050505081526020016004820180546103b490611a55565b80601f01602080910402602001604051908101604052809291908181526020018280546103e090611a55565b801561042d5780601f106104025761010080835404028352916020019161042d565b820191906000526020600020905b81548152906001019060200180831161041057829003601f168201915b50505050508152505081526020019060010190610139565b50505050905090565b60005b8151811015610583576105708282815181106104705761046f611a87565b5b602002602001015160008151811061048b5761048a611a87565b5b60200260200101518383815181106104a6576104a5611a87565b5b60200260200101516001815181106104c1576104c0611a87565b5b60200260200101518484815181106104dc576104db611a87565b5b60200260200101516002815181106104f7576104f6611a87565b5b602002602001015185858151811061051257610511611a87565b5b602002602001015160038151811061052d5761052c611a87565b5b602002602001015186868151811061054857610547611a87565b5b602002602001015160048151811061056357610562611a87565b5b6020026020010151610e6b565b808061057b90611aef565b915050610451565b5050565b60005b81518110156106bc576106a98282815181106105a9576105a8611a87565b5b60200260200101516000815181106105c4576105c3611a87565b5b60200260200101518383815181106105df576105de611a87565b5b60200260200101516001815181106105fa576105f9611a87565b5b602002602001015184848151811061061557610614611a87565b5b60200260200101516002815181106106305761062f611a87565b5b602002602001015185858151811061064b5761064a611a87565b5b602002602001015160038151811061066657610665611a87565b5b602002602001015186868151811061068157610680611a87565b5b602002602001015160048151811061069c5761069b611a87565b5b6020026020010151610f57565b80806106b490611aef565b91505061058a565b5050565b60005b81518110156107f5576107e28282815181106106e2576106e1611a87565b5b60200260200101516000815181106106fd576106fc611a87565b5b602002602001015183838151811061071857610717611a87565b5b602002602001015160018151811061073357610732611a87565b5b602002602001015184848151811061074e5761074d611a87565b5b602002602001015160028151811061076957610768611a87565b5b602002602001015185858151811061078457610783611a87565b5b602002602001015160038151811061079f5761079e611a87565b5b60200260200101518686815181106107ba576107b9611a87565b5b60200260200101516004815181106107d5576107d4611a87565b5b6020026020010151611043565b80806107ed90611aef565b9150506106c3565b5050565b60606001805480602002602001604051908101604052809291908181526020016000905b82821015610b2957838290600052602060002090600502016040518060a001604052908160008201805461085090611a55565b80601f016020809104026020016040519081016040528092919081815260200182805461087c90611a55565b80156108c95780601f1061089e576101008083540402835291602001916108c9565b820191906000526020600020905b8154815290600101906020018083116108ac57829003601f168201915b505050505081526020016001820180546108e290611a55565b80601f016020809104026020016040519081016040528092919081815260200182805461090e90611a55565b801561095b5780601f106109305761010080835404028352916020019161095b565b820191906000526020600020905b81548152906001019060200180831161093e57829003601f168201915b5050505050815260200160028201805461097490611a55565b80601f01602080910402602001604051908101604052809291908181526020018280546109a090611a55565b80156109ed5780601f106109c2576101008083540402835291602001916109ed565b820191906000526020600020905b8154815290600101906020018083116109d057829003601f168201915b50505050508152602001600382018054610a0690611a55565b80601f0160208091040260200160405190810160405280929190818152602001828054610a3290611a55565b8015610a7f5780601f10610a5457610100808354040283529160200191610a7f565b820191906000526020600020905b815481529060010190602001808311610a6257829003601f168201915b50505050508152602001600482018054610a9890611a55565b80601f0160208091040260200160405190810160405280929190818152602001828054610ac490611a55565b8015610b115780601f10610ae657610100808354040283529160200191610b11565b820191906000526020600020905b815481529060010190602001808311610af457829003601f168201915b5050505050815250508152602001906001019061081d565b50505050905090565b60606002805480602002602001604051908101604052809291908181526020016000905b82821015610e6257838290600052602060002090600502016040518060a0016040529081600082018054610b8990611a55565b80601f0160208091040260200160405190810160405280929190818152602001828054610bb590611a55565b8015610c025780601f10610bd757610100808354040283529160200191610c02565b820191906000526020600020905b815481529060010190602001808311610be557829003601f168201915b50505050508152602001600182018054610c1b90611a55565b80601f0160208091040260200160405190810160405280929190818152602001828054610c4790611a55565b8015610c945780601f10610c6957610100808354040283529160200191610c94565b820191906000526020600020905b815481529060010190602001808311610c7757829003601f168201915b50505050508152602001600282018054610cad90611a55565b80601f0160208091040260200160405190810160405280929190818152602001828054610cd990611a55565b8015610d265780601f10610cfb57610100808354040283529160200191610d26565b820191906000526020600020905b815481529060010190602001808311610d0957829003601f168201915b50505050508152602001600382018054610d3f90611a55565b80601f0160208091040260200160405190810160405280929190818152602001828054610d6b90611a55565b8015610db85780601f10610d8d57610100808354040283529160200191610db8565b820191906000526020600020905b815481529060010190602001808311610d9b57829003601f168201915b50505050508152602001600482018054610dd190611a55565b80601f0160208091040260200160405190810160405280929190818152602001828054610dfd90611a55565b8015610e4a5780601f10610e1f57610100808354040283529160200191610e4a565b820191906000526020600020905b815481529060010190602001808311610e2d57829003601f168201915b50505050508152505081526020019060010190610b56565b50505050905090565b60016040518060a001604052808781526020018681526020018581526020018481526020018381525090806001815401808255809150506001900390600052602060002090600502016000909190919091506000820151816000019080519060200190610ed992919061112f565b506020820151816001019080519060200190610ef692919061112f565b506040820151816002019080519060200190610f1392919061112f565b506060820151816003019080519060200190610f3092919061112f565b506080820151816004019080519060200190610f4d92919061112f565b5050505050505050565b60026040518060a001604052808781526020018681526020018581526020018481526020018381525090806001815401808255809150506001900390600052602060002090600502016000909190919091506000820151816000019080519060200190610fc592919061112f565b506020820151816001019080519060200190610fe292919061112f565b506040820151816002019080519060200190610fff92919061112f565b50606082015181600301908051906020019061101c92919061112f565b50608082015181600401908051906020019061103992919061112f565b5050505050505050565b60006040518060a0016040528087815260200186815260200185815260200184815260200183815250908060018154018082558091505060019003906000526020600020906005020160009091909190915060008201518160000190805190602001906110b192919061112f565b5060208201518160010190805190602001906110ce92919061112f565b5060408201518160020190805190602001906110eb92919061112f565b50606082015181600301908051906020019061110892919061112f565b50608082015181600401908051906020019061112592919061112f565b5050505050505050565b82805461113b90611a55565b90600052602060002090601f01602090048101928261115d57600085556111a4565b82601f1061117657805160ff19168380011785556111a4565b828001600101855582156111a4579182015b828111156111a3578251825591602001919060010190611188565b5b5090506111b191906111b5565b5090565b5b808211156111ce5760008160009055506001016111b6565b5090565b600081519050919050565b600082825260208201905092915050565b6000819050602082019050919050565b600081519050919050565b600082825260208201905092915050565b60005b8381101561123857808201518184015260208101905061121d565b83811115611247576000848401525b50505050565b6000601f19601f8301169050919050565b6000611269826111fe565b6112738185611209565b935061128381856020860161121a565b61128c8161124d565b840191505092915050565b600060a08301600083015184820360008601526112b4828261125e565b915050602083015184820360208601526112ce828261125e565b915050604083015184820360408601526112e8828261125e565b91505060608301518482036060860152611302828261125e565b9150506080830151848203608086015261131c828261125e565b9150508091505092915050565b60006113358383611297565b905092915050565b6000602082019050919050565b6000611355826111d2565b61135f81856111dd565b935083602082028501611371856111ee565b8060005b858110156113ad578484038952815161138e8582611329565b94506113998361133d565b925060208a01995050600181019050611375565b50829750879550505050505092915050565b600060208201905081810360008301526113d9818461134a565b905092915050565b6000604051905090565b600080fd5b600080fd5b600080fd5b7f4e487b7100000000000000000000000000000000000000000000000000000000600052604160045260246000fd5b6114328261124d565b810181811067ffffffffffffffff82111715611451576114506113fa565b5b80604052505050565b60006114646113e1565b90506114708282611429565b919050565b600067ffffffffffffffff8211156114905761148f6113fa565b5b602082029050602081019050919050565b600080fd5b600067ffffffffffffffff8211156114c1576114c06113fa565b5b602082029050602081019050919050565b600080fd5b600067ffffffffffffffff8211156114f2576114f16113fa565b5b6114fb8261124d565b9050602081019050919050565b82818337600083830152505050565b600061152a611525846114d7565b61145a565b905082815260208101848484011115611546576115456114d2565b5b611551848285611508565b509392505050565b600082601f83011261156e5761156d6113f5565b5b813561157e848260208601611517565b91505092915050565b600061159a611595846114a6565b61145a565b905080838252602082019050602084028301858111156115bd576115bc6114a1565b5b835b8181101561160457803567ffffffffffffffff8111156115e2576115e16113f5565b5b8086016115ef8982611559565b855260208501945050506020810190506115bf565b5050509392505050565b600082601f830112611623576116226113f5565b5b8135611633848260208601611587565b91505092915050565b600061164f61164a84611475565b61145a565b90508083825260208201905060208402830185811115611672576116716114a1565b5b835b818110156116b957803567ffffffffffffffff811115611697576116966113f5565b5b8086016116a4898261160e565b85526020850194505050602081019050611674565b5050509392505050565b600082601f8301126116d8576116d76113f5565b5b81356116e884826020860161163c565b91505092915050565b600060208284031215611707576117066113eb565b5b600082013567ffffffffffffffff811115611725576117246113f0565b5b611731848285016116c3565b91505092915050565b600081519050919050565b600082825260208201905092915050565b6000819050602082019050919050565b600060a0830160008301518482036000860152611783828261125e565b9150506020830151848203602086015261179d828261125e565b915050604083015184820360408601526117b7828261125e565b915050606083015184820360608601526117d1828261125e565b915050608083015184820360808601526117eb828261125e565b9150508091505092915050565b60006118048383611766565b905092915050565b6000602082019050919050565b60006118248261173a565b61182e8185611745565b93508360208202850161184085611756565b8060005b8581101561187c578484038952815161185d85826117f8565b94506118688361180c565b925060208a01995050600181019050611844565b50829750879550505050505092915050565b600060208201905081810360008301526118a88184611819565b905092915050565b600081519050919050565b600082825260208201905092915050565b6000819050602082019050919050565b600060a08301600083015184820360008601526118f9828261125e565b91505060208301518482036020860152611913828261125e565b9150506040830151848203604086015261192d828261125e565b91505060608301518482036060860152611947828261125e565b91505060808301518482036080860152611961828261125e565b9150508091505092915050565b600061197a83836118dc565b905092915050565b6000602082019050919050565b600061199a826118b0565b6119a481856118bb565b9350836020820285016119b6856118cc565b8060005b858110156119f257848403895281516119d3858261196e565b94506119de83611982565b925060208a019950506001810190506119ba565b50829750879550505050505092915050565b60006020820190508181036000830152611a1e818461198f565b905092915050565b7f4e487b7100000000000000000000000000000000000000000000000000000000600052602260045260246000fd5b60006002820490506001821680611a6d57607f821691505b60208210811415611a8157611a80611a26565b5b50919050565b7f4e487b7100000000000000000000000000000000000000000000000000000000600052603260045260246000fd5b7f4e487b7100000000000000000000000000000000000000000000000000000000600052601160045260246000fd5b6000819050919050565b6000611afa82611ae5565b91507fffffffffffffffffffffffffffffffffffffffffffffffffffffffffffffffff821415611b2d57611b2c611ab6565b5b60018201905091905056fea2646970667358221220940db6c151a3ba56c78966527190dff6dd1a243df24942d73c63ae52be82e3f664736f6c634300080b0033",
  "immutableReferences": {},
  "source": "// SPDX-License-Identifier: MIT\npragma solidity >=0.4.22 <0.9.0;\n\ncontract Share {\n\n  Show [] private shows;\n  ShowDomain [] private showDomains;\n  ShowTunnel [] private showTunnels;\n  address owner;\n\n  struct Show{    // IP/\n      string IP;  // ip\n      string Level;  // \n      string IocType;  // ioc  \n      string Tags;  // \n      string WarnName; // \n  }\n\n  struct ShowDomain{    // IP/\n      string Domain;  // \n      string Level;  // \n      string IocType;  // ioc  \n      string Tags;  // \n      string WarnName; // \n  }\n\n  struct ShowTunnel{    // IP/\n      string IP;  // ip\n      string Level;  // \n      string IocType;  // ioc  \n      string Tags;  // \n      string WarnName; // \n  }\n\n  function upload(string memory ip,string memory level,string memory iocType,string memory tags,string memory warnName) private {\n    shows.push(Show(ip,level,iocType,tags,warnName));\n  }\n\n  function uploadDomain(string memory domain,string memory level,string memory iocType,string memory tags,string memory warnName) private {\n    showDomains.push(ShowDomain(domain,level,iocType,tags,warnName));\n  }\n\n  function uploadTunnel(string memory ip,string memory level,string memory iocType,string memory tags,string memory warnName) private {\n    showTunnels.push(ShowTunnel(ip,level,iocType,tags,warnName));\n  }\n\n  function store(string[][] memory _shows) public {\n    // require(owner == msg.sender, 'must be onwer');\n    for (uint256 i = 0; i < _shows.length; i++) {\n      upload(_shows[i][0],_shows[i][1],_shows[i][2],_shows[i][3],_shows[i][4]);\n    }\n  }\n\n  function storeDomain(string[][] memory _showDomains) public {\n    // require(owner == msg.sender, 'must be onwer');\n    for (uint256 i = 0; i < _showDomains.length; i++) {\n      uploadDomain(_showDomains[i][0],_showDomains[i][1],_showDomains[i][2],_showDomains[i][3],_showDomains[i][4]);\n    }\n  }\n\n  function storeTunnel(string[][] memory _showsTunnels) public {\n    // require(owner == msg.sender, 'must be onwer');\n    for (uint256 i = 0; i < _showsTunnels.length; i++) {\n      uploadTunnel(_showsTunnels[i][0],_showsTunnels[i][1],_showsTunnels[i][2],_showsTunnels[i][3],_showsTunnels[i][4]);\n    }\n  }\n\n  //\n  function query() view public returns(Show[] memory) {\n    return shows;\n  }\n\n  function queryDomain() view public returns(ShowDomain[] memory) {\n    return showDomains;\n  }\n\n  function queryTunnel() view public returns(ShowTunnel[] memory) {\n    return showTunnels;\n  }\n}\n",
  "sourcePath": "/opt/ethereum/shareIps/contracts/Share.sol",
  "compiler": {
    "name": "solc",
    "version": "0.8.11+commit.d7f03943.Emscripten.clang"
  },
  "schemaVersion": "3.4.5",
  "updatedAt": "2022-03-10T12:00:17.192Z",
  "networkType": "ethereum",
  "devdoc": {
    "kind": "dev",
    "methods": {},
    "version": 1
  },
  "userdoc": {
    "kind": "user",
    "methods": {},
    "version": 1
  }
}