{
  "contractName": "Share",
  "abi": [
    {
      "inputs": [
        {
          "internalType": "string[][]",
          "name": "_shows",
          "type": "string[][]"
        }
      ],
      "name": "store",
      "outputs": [],
      "stateMutability": "nonpayable",
      "type": "function"
    },
    {
      "inputs": [
        {
          "internalType": "string[][]",
          "name": "_showDomains",
          "type": "string[][]"
        }
      ],
      "name": "storeDomain",
      "outputs": [],
      "stateMutability": "nonpayable",
      "type": "function"
    },
    {
      "inputs": [
        {
          "internalType": "string[][]",
          "name": "_showsTunnels",
          "type": "string[][]"
        }
      ],
      "name": "storeTunnel",
      "outputs": [],
      "stateMutability": "nonpayable",
      "type": "function"
    },
    {
      "inputs": [],
      "name": "query",
      "outputs": [
        {
          "components": [
            {
              "internalType": "string",
              "name": "IP",
              "type": "string"
            },
            {
              "internalType": "string",
              "name": "Level",
              "type": "string"
            },
            {
              "internalType": "string",
              "name": "IocType",
              "type": "string"
            },
            {
              "internalType": "string",
              "name": "Tags",
              "type": "string"
            },
            {
              "internalType": "string",
              "name": "WarnName",
              "type": "string"
            },
            {
              "internalType": "string",
              "name": "Country",
              "type": "string"
            },
            {
              "internalType": "string",
              "name": "City",
              "type": "string"
            },
            {
              "internalType": "string",
              "name": "ISP",
              "type": "string"
            }
          ],
          "internalType": "struct Share.Show[]",
          "name": "",
          "type": "tuple[]"
        }
      ],
      "stateMutability": "view",
      "type": "function",
      "constant": true
    },
    {
      "inputs": [],
      "name": "queryDomain",
      "outputs": [
        {
          "components": [
            {
              "internalType": "string",
              "name": "Domain",
              "type": "string"
            },
            {
              "internalType": "string",
              "name": "Level",
              "type": "string"
            },
            {
              "internalType": "string",
              "name": "IocType",
              "type": "string"
            },
            {
              "internalType": "string",
              "name": "Tags",
              "type": "string"
            },
            {
              "internalType": "string",
              "name": "WarnName",
              "type": "string"
            },
            {
              "internalType": "string",
              "name": "Country",
              "type": "string"
            },
            {
              "internalType": "string",
              "name": "City",
              "type": "string"
            },
            {
              "internalType": "string",
              "name": "ISP",
              "type": "string"
            }
          ],
          "internalType": "struct Share.ShowDomain[]",
          "name": "",
          "type": "tuple[]"
        }
      ],
      "stateMutability": "view",
      "type": "function",
      "constant": true
    },
    {
      "inputs": [],
      "name": "queryTunnel",
      "outputs": [
        {
          "components": [
            {
              "internalType": "string",
              "name": "IP",
              "type": "string"
            },
            {
              "internalType": "string",
              "name": "Level",
              "type": "string"
            },
            {
              "internalType": "string",
              "name": "IocType",
              "type": "string"
            },
            {
              "internalType": "string",
              "name": "Tags",
              "type": "string"
            },
            {
              "internalType": "string",
              "name": "WarnName",
              "type": "string"
            },
            {
              "internalType": "string",
              "name": "Country",
              "type": "string"
            },
            {
              "internalType": "string",
              "name": "City",
              "type": "string"
            },
            {
              "internalType": "string",
              "name": "ISP",
              "type": "string"
            }
          ],
          "internalType": "struct Share.ShowTunnel[]",
          "name": "",
          "type": "tuple[]"
        }
      ],
      "stateMutability": "view",
      "type": "function",
      "constant": true
    }
  ],
  "bytecode": "0x608060405234801561001057600080fd5b506124ad806100206000396000f3fe608060405234801561001057600080fd5b50600436106100625760003560e01c80632c46b2051461006757806341e5f062146100855780637e2deea3146100a1578063a4a0fc42146100bd578063af022625146100d9578063ca874ebc146100f7575b600080fd5b61006f610115565b60405161007c9190611c60565b60405180910390f35b61009f600480360381019061009a9190611f92565b610605565b005b6100bb60048036038101906100b69190611f92565b6107e0565b005b6100d760048036038101906100d29190611f92565b6109bb565b005b6100e1610b96565b6040516100ee919061217e565b60405180910390f35b6100ff611086565b60405161010c9190612343565b60405180910390f35b60606000805480602002602001604051908101604052809291908181526020016000905b828210156105fc57838290600052602060002090600802016040518061010001604052908160008201805461016d90612394565b80601f016020809104026020016040519081016040528092919081815260200182805461019990612394565b80156101e65780601f106101bb576101008083540402835291602001916101e6565b820191906000526020600020905b8154815290600101906020018083116101c957829003601f168201915b505050505081526020016001820180546101ff90612394565b80601f016020809104026020016040519081016040528092919081815260200182805461022b90612394565b80156102785780601f1061024d57610100808354040283529160200191610278565b820191906000526020600020905b81548152906001019060200180831161025b57829003601f168201915b5050505050815260200160028201805461029190612394565b80601f01602080910402602001604051908101604052809291908181526020018280546102bd90612394565b801561030a5780601f106102df5761010080835404028352916020019161030a565b820191906000526020600020905b8154815290600101906020018083116102ed57829003601f168201915b5050505050815260200160038201805461032390612394565b80601f016020809104026020016040519081016040528092919081815260200182805461034f90612394565b801561039c5780601f106103715761010080835404028352916020019161039c565b820191906000526020600020905b81548152906001019060200180831161037f57829003601f168201915b505050505081526020016004820180546103b590612394565b80601f01602080910402602001604051908101604052809291908181526020018280546103e190612394565b801561042e5780601f106104035761010080835404028352916020019161042e565b820191906000526020600020905b81548152906001019060200180831161041157829003601f168201915b5050505050815260200160058201805461044790612394565b80601f016020809104026020016040519081016040528092919081815260200182805461047390612394565b80156104c05780601f10610495576101008083540402835291602001916104c0565b820191906000526020600020905b8154815290600101906020018083116104a357829003601f168201915b505050505081526020016006820180546104d990612394565b80601f016020809104026020016040519081016040528092919081815260200182805461050590612394565b80156105525780601f1061052757610100808354040283529160200191610552565b820191906000526020600020905b81548152906001019060200180831161053557829003601f168201915b5050505050815260200160078201805461056b90612394565b80601f016020809104026020016040519081016040528092919081815260200182805461059790612394565b80156105e45780601f106105b9576101008083540402835291602001916105e4565b820191906000526020600020905b8154815290600101906020018083116105c757829003601f168201915b50505050508152505081526020019060010190610139565b50505050905090565b60005b81518110156107dc576107c9828281518110610627576106266123c6565b5b6020026020010151600081518110610642576106416123c6565b5b602002602001015183838151811061065d5761065c6123c6565b5b6020026020010151600181518110610678576106776123c6565b5b6020026020010151848481518110610693576106926123c6565b5b60200260200101516002815181106106ae576106ad6123c6565b5b60200260200101518585815181106106c9576106c86123c6565b5b60200260200101516003815181106106e4576106e36123c6565b5b60200260200101518686815181106106ff576106fe6123c6565b5b602002602001015160048151811061071a576107196123c6565b5b6020026020010151878781518110610735576107346123c6565b5b60200260200101516005815181106107505761074f6123c6565b5b602002602001015188888151811061076b5761076a6123c6565b5b6020026020010151600681518110610786576107856123c6565b5b60200260200101518989815181106107a1576107a06123c6565b5b60200260200101516007815181106107bc576107bb6123c6565b5b6020026020010151611576565b80806107d49061242e565b915050610608565b5050565b60005b81518110156109b7576109a4828281518110610802576108016123c6565b5b602002602001015160008151811061081d5761081c6123c6565b5b6020026020010151838381518110610838576108376123c6565b5b6020026020010151600181518110610853576108526123c6565b5b602002602001015184848151811061086e5761086d6123c6565b5b6020026020010151600281518110610889576108886123c6565b5b60200260200101518585815181106108a4576108a36123c6565b5b60200260200101516003815181106108bf576108be6123c6565b5b60200260200101518686815181106108da576108d96123c6565b5b60200260200101516004815181106108f5576108f46123c6565b5b60200260200101518787815181106109105761090f6123c6565b5b602002602001015160058151811061092b5761092a6123c6565b5b6020026020010151888881518110610946576109456123c6565b5b6020026020010151600681518110610961576109606123c6565b5b602002602001015189898151811061097c5761097b6123c6565b5b6020026020010151600781518110610997576109966123c6565b5b60200260200101516116cf565b80806109af9061242e565b9150506107e3565b5050565b60005b8151811015610b9257610b7f8282815181106109dd576109dc6123c6565b5b60200260200101516000815181106109f8576109f76123c6565b5b6020026020010151838381518110610a1357610a126123c6565b5b6020026020010151600181518110610a2e57610a2d6123c6565b5b6020026020010151848481518110610a4957610a486123c6565b5b6020026020010151600281518110610a6457610a636123c6565b5b6020026020010151858581518110610a7f57610a7e6123c6565b5b6020026020010151600381518110610a9a57610a996123c6565b5b6020026020010151868681518110610ab557610ab46123c6565b5b6020026020010151600481518110610ad057610acf6123c6565b5b6020026020010151878781518110610aeb57610aea6123c6565b5b6020026020010151600581518110610b0657610b056123c6565b5b6020026020010151888881518110610b2157610b206123c6565b5b6020026020010151600681518110610b3c57610b3b6123c6565b5b6020026020010151898981518110610b5757610b566123c6565b5b6020026020010151600781518110610b7257610b716123c6565b5b6020026020010151611828565b8080610b8a9061242e565b9150506109be565b5050565b60606001805480602002602001604051908101604052809291908181526020016000905b8282101561107d578382906000526020600020906008020160405180610100016040529081600082018054610bee90612394565b80601f0160208091040260200160405190810160405280929190818152602001828054610c1a90612394565b8015610c675780601f10610c3c57610100808354040283529160200191610c67565b820191906000526020600020905b815481529060010190602001808311610c4a57829003601f168201915b50505050508152602001600182018054610c8090612394565b80601f0160208091040260200160405190810160405280929190818152602001828054610cac90612394565b8015610cf95780601f10610cce57610100808354040283529160200191610cf9565b820191906000526020600020905b815481529060010190602001808311610cdc57829003601f168201915b50505050508152602001600282018054610d1290612394565b80601f0160208091040260200160405190810160405280929190818152602001828054610d3e90612394565b8015610d8b5780601f10610d6057610100808354040283529160200191610d8b565b820191906000526020600020905b815481529060010190602001808311610d6e57829003601f168201915b50505050508152602001600382018054610da490612394565b80601f0160208091040260200160405190810160405280929190818152602001828054610dd090612394565b8015610e1d5780601f10610df257610100808354040283529160200191610e1d565b820191906000526020600020905b815481529060010190602001808311610e0057829003601f168201915b50505050508152602001600482018054610e3690612394565b80601f0160208091040260200160405190810160405280929190818152602001828054610e6290612394565b8015610eaf5780601f10610e8457610100808354040283529160200191610eaf565b820191906000526020600020905b815481529060010190602001808311610e9257829003601f168201915b50505050508152602001600582018054610ec890612394565b80601f0160208091040260200160405190810160405280929190818152602001828054610ef490612394565b8015610f415780601f10610f1657610100808354040283529160200191610f41565b820191906000526020600020905b815481529060010190602001808311610f2457829003601f168201915b50505050508152602001600682018054610f5a90612394565b80601f0160208091040260200160405190810160405280929190818152602001828054610f8690612394565b8015610fd35780601f10610fa857610100808354040283529160200191610fd3565b820191906000526020600020905b815481529060010190602001808311610fb657829003601f168201915b50505050508152602001600782018054610fec90612394565b80601f016020809104026020016040519081016040528092919081815260200182805461101890612394565b80156110655780601f1061103a57610100808354040283529160200191611065565b820191906000526020600020905b81548152906001019060200180831161104857829003601f168201915b50505050508152505081526020019060010190610bba565b50505050905090565b60606002805480602002602001604051908101604052809291908181526020016000905b8282101561156d5783829060005260206000209060080201604051806101000160405290816000820180546110de90612394565b80601f016020809104026020016040519081016040528092919081815260200182805461110a90612394565b80156111575780601f1061112c57610100808354040283529160200191611157565b820191906000526020600020905b81548152906001019060200180831161113a57829003601f168201915b5050505050815260200160018201805461117090612394565b80601f016020809104026020016040519081016040528092919081815260200182805461119c90612394565b80156111e95780601f106111be576101008083540402835291602001916111e9565b820191906000526020600020905b8154815290600101906020018083116111cc57829003601f168201915b5050505050815260200160028201805461120290612394565b80601f016020809104026020016040519081016040528092919081815260200182805461122e90612394565b801561127b5780601f106112505761010080835404028352916020019161127b565b820191906000526020600020905b81548152906001019060200180831161125e57829003601f168201915b5050505050815260200160038201805461129490612394565b80601f01602080910402602001604051908101604052809291908181526020018280546112c090612394565b801561130d5780601f106112e25761010080835404028352916020019161130d565b820191906000526020600020905b8154815290600101906020018083116112f057829003601f168201915b5050505050815260200160048201805461132690612394565b80601f016020809104026020016040519081016040528092919081815260200182805461135290612394565b801561139f5780601f106113745761010080835404028352916020019161139f565b820191906000526020600020905b81548152906001019060200180831161138257829003601f168201915b505050505081526020016005820180546113b890612394565b80601f01602080910402602001604051908101604052809291908181526020018280546113e490612394565b80156114315780601f1061140657610100808354040283529160200191611431565b820191906000526020600020905b81548152906001019060200180831161141457829003601f168201915b5050505050815260200160068201805461144a90612394565b80601f016020809104026020016040519081016040528092919081815260200182805461147690612394565b80156114c35780601f10611498576101008083540402835291602001916114c3565b820191906000526020600020905b8154815290600101906020018083116114a657829003601f168201915b505050505081526020016007820180546114dc90612394565b80601f016020809104026020016040519081016040528092919081815260200182805461150890612394565b80156115555780601f1061152a57610100808354040283529160200191611555565b820191906000526020600020905b81548152906001019060200180831161153857829003601f168201915b505050505081525050815260200190600101906110aa565b50505050905090565b60016040518061010001604052808a815260200189815260200188815260200187815260200186815260200185815260200184815260200183815250908060018154018082558091505060019003906000526020600020906008020160009091909190915060008201518160000190805190602001906115f7929190611981565b506020820151816001019080519060200190611614929190611981565b506040820151816002019080519060200190611631929190611981565b50606082015181600301908051906020019061164e929190611981565b50608082015181600401908051906020019061166b929190611981565b5060a0820151816005019080519060200190611688929190611981565b5060c08201518160060190805190602001906116a5929190611981565b5060e08201518160070190805190602001906116c2929190611981565b5050505050505050505050565b60026040518061010001604052808a81526020018981526020018881526020018781526020018681526020018581526020018481526020018381525090806001815401808255809150506001900390600052602060002090600802016000909190919091506000820151816000019080519060200190611750929190611981565b50602082015181600101908051906020019061176d929190611981565b50604082015181600201908051906020019061178a929190611981565b5060608201518160030190805190602001906117a7929190611981565b5060808201518160040190805190602001906117c4929190611981565b5060a08201518160050190805190602001906117e1929190611981565b5060c08201518160060190805190602001906117fe929190611981565b5060e082015181600701908051906020019061181b929190611981565b5050505050505050505050565b60006040518061010001604052808a815260200189815260200188815260200187815260200186815260200185815260200184815260200183815250908060018154018082558091505060019003906000526020600020906008020160009091909190915060008201518160000190805190602001906118a9929190611981565b5060208201518160010190805190602001906118c6929190611981565b5060408201518160020190805190602001906118e3929190611981565b506060820151816003019080519060200190611900929190611981565b50608082015181600401908051906020019061191d929190611981565b5060a082015181600501908051906020019061193a929190611981565b5060c0820151816006019080519060200190611957929190611981565b5060e0820151816007019080519060200190611974929190611981565b5050505050505050505050565b82805461198d90612394565b90600052602060002090601f0160209004810192826119af57600085556119f6565b82601f106119c857805160ff19168380011785556119f6565b828001600101855582156119f6579182015b828111156119f55782518255916020019190600101906119da565b5b509050611a039190611a07565b5090565b5b80821115611a20576000816000905550600101611a08565b5090565b600081519050919050565b600082825260208201905092915050565b6000819050602082019050919050565b600081519050919050565b600082825260208201905092915050565b60005b83811015611a8a578082015181840152602081019050611a6f565b83811115611a99576000848401525b50505050565b6000601f19601f8301169050919050565b6000611abb82611a50565b611ac58185611a5b565b9350611ad5818560208601611a6c565b611ade81611a9f565b840191505092915050565b6000610100830160008301518482036000860152611b078282611ab0565b91505060208301518482036020860152611b218282611ab0565b91505060408301518482036040860152611b3b8282611ab0565b91505060608301518482036060860152611b558282611ab0565b91505060808301518482036080860152611b6f8282611ab0565b91505060a083015184820360a0860152611b898282611ab0565b91505060c083015184820360c0860152611ba38282611ab0565b91505060e083015184820360e0860152611bbd8282611ab0565b9150508091505092915050565b6000611bd68383611ae9565b905092915050565b6000602082019050919050565b6000611bf682611a24565b611c008185611a2f565b935083602082028501611c1285611a40565b8060005b85811015611c4e5784840389528151611c2f8582611bca565b9450611c3a83611bde565b925060208a01995050600181019050611c16565b50829750879550505050505092915050565b60006020820190508181036000830152611c7a8184611beb565b905092915050565b6000604051905090565b600080fd5b600080fd5b600080fd5b7f4e487b7100000000000000000000000000000000000000000000000000000000600052604160045260246000fd5b611cd382611a9f565b810181811067ffffffffffffffff82111715611cf257611cf1611c9b565b5b80604052505050565b6000611d05611c82565b9050611d118282611cca565b919050565b600067ffffffffffffffff821115611d3157611d30611c9b565b5b602082029050602081019050919050565b600080fd5b600067ffffffffffffffff821115611d6257611d61611c9b565b5b602082029050602081019050919050565b600080fd5b600067ffffffffffffffff821115611d9357611d92611c9b565b5b611d9c82611a9f565b9050602081019050919050565b82818337600083830152505050565b6000611dcb611dc684611d78565b611cfb565b905082815260208101848484011115611de757611de6611d73565b5b611df2848285611da9565b509392505050565b600082601f830112611e0f57611e0e611c96565b5b8135611e1f848260208601611db8565b91505092915050565b6000611e3b611e3684611d47565b611cfb565b90508083825260208201905060208402830185811115611e5e57611e5d611d42565b5b835b81811015611ea557803567ffffffffffffffff811115611e8357611e82611c96565b5b808601611e908982611dfa565b85526020850194505050602081019050611e60565b5050509392505050565b600082601f830112611ec457611ec3611c96565b5b8135611ed4848260208601611e28565b91505092915050565b6000611ef0611eeb84611d16565b611cfb565b90508083825260208201905060208402830185811115611f1357611f12611d42565b5b835b81811015611f5a57803567ffffffffffffffff811115611f3857611f37611c96565b5b808601611f458982611eaf565b85526020850194505050602081019050611f15565b5050509392505050565b600082601f830112611f7957611f78611c96565b5b8135611f89848260208601611edd565b91505092915050565b600060208284031215611fa857611fa7611c8c565b5b600082013567ffffffffffffffff811115611fc657611fc5611c91565b5b611fd284828501611f64565b91505092915050565b600081519050919050565b600082825260208201905092915050565b6000819050602082019050919050565b60006101008301600083015184820360008601526120258282611ab0565b9150506020830151848203602086015261203f8282611ab0565b915050604083015184820360408601526120598282611ab0565b915050606083015184820360608601526120738282611ab0565b9150506080830151848203608086015261208d8282611ab0565b91505060a083015184820360a08601526120a78282611ab0565b91505060c083015184820360c08601526120c18282611ab0565b91505060e083015184820360e08601526120db8282611ab0565b9150508091505092915050565b60006120f48383612007565b905092915050565b6000602082019050919050565b600061211482611fdb565b61211e8185611fe6565b93508360208202850161213085611ff7565b8060005b8581101561216c578484038952815161214d85826120e8565b9450612158836120fc565b925060208a01995050600181019050612134565b50829750879550505050505092915050565b600060208201905081810360008301526121988184612109565b905092915050565b600081519050919050565b600082825260208201905092915050565b6000819050602082019050919050565b60006101008301600083015184820360008601526121ea8282611ab0565b915050602083015184820360208601526122048282611ab0565b9150506040830151848203604086015261221e8282611ab0565b915050606083015184820360608601526122388282611ab0565b915050608083015184820360808601526122528282611ab0565b91505060a083015184820360a086015261226c8282611ab0565b91505060c083015184820360c08601526122868282611ab0565b91505060e083015184820360e08601526122a08282611ab0565b9150508091505092915050565b60006122b983836121cc565b905092915050565b6000602082019050919050565b60006122d9826121a0565b6122e381856121ab565b9350836020820285016122f5856121bc565b8060005b85811015612331578484038952815161231285826122ad565b945061231d836122c1565b925060208a019950506001810190506122f9565b50829750879550505050505092915050565b6000602082019050818103600083015261235d81846122ce565b905092915050565b7f4e487b7100000000000000000000000000000000000000000000000000000000600052602260045260246000fd5b600060028204905060018216806123ac57607f821691505b602082108114156123c0576123bf612365565b5b50919050565b7f4e487b7100000000000000000000000000000000000000000000000000000000600052603260045260246000fd5b7f4e487b7100000000000000000000000000000000000000000000000000000000600052601160045260246000fd5b6000819050919050565b600061243982612424565b91507fffffffffffffffffffffffffffffffffffffffffffffffffffffffffffffffff82141561246c5761246b6123f5565b5b60018201905091905056fea2646970667358221220a0550242ce521d85196aa4021622c5b3924b3a0e0e1bb17f697747bef61697ec64736f6c634300080b0033",
  "immutableReferences": {},
  "source": "// SPDX-License-Identifier: MIT\npragma solidity >=0.4.22 <0.9.0;\n\ncontract Share {\n\n  Show [] private shows;\n  ShowDomain [] private showDomains;\n  ShowTunnel [] private showTunnels;\n  address owner;\n\n  struct Show{    // IP/\n      string IP;  // ip\n      string Level;  // \n      string IocType;  // ioc  \n      string Tags;  // \n      string WarnName; // \n      string Country;  //IP\n      string City; //IP\n      string ISP; //IP\n  }\n\n  struct ShowDomain{    // IP/\n      string Domain;  // \n      string Level;  // \n      string IocType;  // ioc  \n      string Tags;  // \n      string WarnName; // \n      string Country;  //IP\n      string City; //IP\n      string ISP; //IP\n  }\n\n  struct ShowTunnel{    // IP/\n      string IP;  // ip\n      string Level;  // \n      string IocType;  // ioc  \n      string Tags;  // \n      string WarnName; // \n      string Country;  //IP\n      string City; //IP\n      string ISP; //IP\n  }\n\n  function upload(string memory ip,string memory level,string memory iocType,string memory tags,string memory warnName,string memory country,string memory city,string memory isp) private {\n    shows.push(Show(ip,level,iocType,tags,warnName,country,city,isp));\n  }\n\n  function uploadDomain(string memory domain,string memory level,string memory iocType,string memory tags,string memory warnName,string memory country,string memory city,string memory isp) private {\n    showDomains.push(ShowDomain(domain,level,iocType,tags,warnName,country,city,isp));\n  }\n\n  function uploadTunnel(string memory ip,string memory level,string memory iocType,string memory tags,string memory warnName,string memory country,string memory city,string memory isp) private {\n    showTunnels.push(ShowTunnel(ip,level,iocType,tags,warnName,country,city,isp));\n  }\n\n  function store(string[][] memory _shows) public {\n    // require(owner == msg.sender, 'must be onwer');\n    for (uint256 i = 0; i < _shows.length; i++) {\n      upload(_shows[i][0],_shows[i][1],_shows[i][2],_shows[i][3],_shows[i][4],_shows[i][5],_shows[i][6],_shows[i][7]);\n    }\n  }\n\n  function storeDomain(string[][] memory _showDomains) public {\n    // require(owner == msg.sender, 'must be onwer');\n    for (uint256 i = 0; i < _showDomains.length; i++) {\n      uploadDomain(_showDomains[i][0],_showDomains[i][1],_showDomains[i][2],_showDomains[i][3],_showDomains[i][4],_showDomains[i][5],_showDomains[i][6],_showDomains[i][7]);\n    }\n  }\n\n  function storeTunnel(string[][] memory _showsTunnels) public {\n    // require(owner == msg.sender, 'must be onwer');\n    for (uint256 i = 0; i < _showsTunnels.length; i++) {\n      uploadTunnel(_showsTunnels[i][0],_showsTunnels[i][1],_showsTunnels[i][2],_showsTunnels[i][3],_showsTunnels[i][4],_showsTunnels[i][5],_showsTunnels[i][6],_showsTunnels[i][7]);\n    }\n  }\n\n  //\n  function query() view public returns(Show[] memory) {\n    return shows;\n  }\n\n  function queryDomain() view public returns(ShowDomain[] memory) {\n    return showDomains;\n  }\n\n  function queryTunnel() view public returns(ShowTunnel[] memory) {\n    return showTunnels;\n  }\n}\n",
  "sourcePath": "/opt/ethereum/shareIps/contracts/Share.sol",
  "compiler": {
    "name": "solc",
    "version": "0.8.11+commit.d7f03943.Emscripten.clang"
  },
  "schemaVersion": "3.4.5",
  "updatedAt": "2022-03-11T03:23:22.205Z",
  "networkType": "ethereum",
  "devdoc": {
    "kind": "dev",
    "methods": {},
    "version": 1
  },
  "userdoc": {
    "kind": "user",
    "methods": {},
    "version": 1
  }
}